:020000040800F2
:100000007804002049010008130300080B030008CE
:100010000F030008B5010008F30A00080000000003
:100020000000000000000000000000009D04000827
:10003000F301000800000000A5030008B105000856
:100040006301000863010008630100086301000800
:1000500063010008630100086301000863010008F0
:1000600063010008630100086301000863010008E0
:1000700063010008630100086301000863010008D0
:1000800063010008630100086301000863010008C0
:1000900063010008630100086301000863010008B0
:1000A00063010008630100086301000863010008A0
:1000B0006301000863010008630100086301000890
:1000C0006301000863010008630100086301000880
:1000D0006301000863010008B10700086108000817
:1000E0006301000863010008630100086301000860
:1000F0006301000863010008630100086301000850
:10010000630100086301000863010008630100083F
:100110001506000863010008630100086301000878
:10012000630100086301000863010008630100081F
:10013000DFF810D000F02CF800480047690C0008E8
:10014000AFF3008078040020064880470648004747
:10015000FEE7FEE7FEE7FEE7FEE7FEE7FEE7FEE777
:10016000FEE7FEE7B505000831010008D2B201E064
:1001700000F8012B491EFBD270470022F6E710B5AC
:1001800013460A4604461946FFF7F0FF204610BD05
:10019000064C074D06E0E06840F0010394E80700D4
:1001A00098471034AC42F6D3FFF7C6FF9C0C00080A
:1001B000BC0C000800BFFEE7F0B502464FF6FF702A
:1001C000002313E012F8016B704000240AE000F0F5
:1001D00001054010C0F30E0015B14AF2010670404F
:1001E000661CF4B2082CF2DB5E1CF3B28B42E9DB36
:1001F000F0BD70472DE9F0410246002500260020A1
:1002000000230024002791F803C00CF00F0591F89B
:1002100003C00CF0100CBCF1000F03D091F802C029
:100220004CEA050591F800C0BCF1000F31D014680C
:1002300000202BE04FF0010C0CFA00F3B1F800C0E5
:100240000CEA03069E4220D183004FF00F0C0CFAFB
:1002500003F7BC4305FA03FC4CEA040491F803C01D
:10026000BCF1280F06D14FF0010C0CFA00FCC2F8CB
:1002700014C00AE091F803C0BCF1480F05D14FF05B
:10028000010C0CFA00FCC2F810C0401C0828D1D3A5
:100290001460B1F800C0BCF1FF0F34DD54680020D9
:1002A0002EE000F1080C4FF0010808FA0CF3B1F849
:1002B00000C00CEA03069E4221D183004FF00F0CD0
:1002C0000CFA03F7BC4305FA03FC4CEA040491F86A
:1002D00003C0BCF1280F05D100F1080C08FA0CF896
:1002E000C2F8148091F803C0BCF1480F07D100F1A7
:1002F000080C4FF0010808FA0CF8C2F81080401CF6
:100300000828CED35460BDE8F08100BFFEE700BFEF
:10031000FEE7704710B54FF4A06000F039F810BD4B
:1003200070B5002100230F22C47804B3154C246853
:1003300004F4E064C4F5E064210AC1F10403CA4096
:10034000447804FA03F184781440214309010E4CE7
:100350000678A155047804F01F050124AC40057807
:100360006D11AD0005F1E025C5F8004109E0047804
:1003700004F01F050124AC40044D0678761145F8C1
:10038000264070BD0CED00E000E400E080E100E0FC
:1003900002490143024A1160704700000000FA055B
:1003A0000CED00E07047000029B1064A9269024353
:1003B000044B9A6104E0034A92698243014B9A61BB
:1003C000704700000010024030B5002100220024D8
:1003D00000232D4D6D6805F00C0121B1042905D0D5
:1003E000082923D105E0294D056022E0274D05604D
:1003F0001FE0254D6D6805F47012234D6D6805F4FE
:100400008034022505EB92421CB9214D554305600D
:100410000BE01D4D6D6805F400351DB11C4D5543B5
:10042000056002E0194D5543056002E0174D056077
:1004300000BF00BF144D6D6805F0F0010909154DAE
:100440006B5C0568DD4045600F4D6D6805F4E0614B
:10045000090A104D6B5C4568DD4085600A4D6D688A
:1004600005F46051C90A0B4D6B5C4568DD40C56001
:10047000054D6D6805F44041890B074D6B5CC568FF
:10048000B5FBF3F5056130BD0010024000127A00A3
:1004900000093D004000002050000020704710B5CA
:1004A00000F002F810BD00000CB500200190009093
:1004B0003348006840F480303149086000BF30485C
:1004C000006800F4003000900198401C01900098F2
:1004D00018B90198B0F5A06FF1D12948006800F46F
:1004E000003010B10120009001E000200090009841
:1004F000012843D12348006840F0100021490860DA
:100500000846006820F0030008600846006840F0D4
:10051000020008601A484068194948600846406867
:1005200048600846406840F480604860084640687B
:1005300020F47C1048600846406840F4E8104860A9
:100540000846006840F08070086000BF0C480068F2
:1005500000F000700028F9D00948406820F003003E
:10056000074948600846406840F00200486000BF04
:100570000348406800F00C000828F9D10CBD0000C9
:100580000010024000200240042808D14FF0E02172
:10059000096941F004014FF0E022116107E04FF0DA
:1005A000E021096921F004014FF0E0221161704758
:1005B0007047000010B51348006840F00100114971
:1005C000086008464068104908400E4948600846DF
:1005D00000680E4908400B4908600846006820F48E
:1005E000802008600846406820F4FE0048604FF410
:1005F0001F008860FFF753FF4FF000600449086058
:1006000010BD0000001002400000FFF8FFFFF6FEE2
:1006100008ED00E010B5002440F22551364800F006
:10062000A3F9012866D140F22551334800F074F94E
:10063000314800F055FAC1B2304802680068401CE9
:100640002E4B18602E48815418460068022846DB5D
:100650002B48007801283BD129484078032837D11E
:100660001846006804283ADD05212548FFF7A4FD57
:100670000446E1B221480068801E214A105C814294
:100680002DD11E480068401E1146085CB0EB142FA7
:1006900025D11C4800F03EFA00201B4908600BE001
:1006A0001748194A1268815C164800F024FA164867
:1006B0000068401C14490860134800680728EFDBF5
:1006C00000200E4908600E4800210160416006E0EC
:1006D00000200A4908600A4800210160416007487B
:1006E0000068082806DB002004490860044800214F
:1006F0000160416010BD0000004C0040200000205F
:1007000018000020003801402800002010B586B0F5
:100710000446012144F20400FFF746FE4FF4007046
:10072000ADF8140003208DF8160018208DF817007E
:1007300005A91D48FFF75EFD4FF48060ADF8140079
:1007400004208DF8170005A91748FFF753FD252051
:100750008DF8000001208DF8030002208DF80100C3
:1007600000208DF802006846FFF7DAFD01940020B2
:10077000ADF80800ADF80A00ADF80C00ADF81000B7
:100780000C20ADF80E00002240F22551074800F081
:1007900015F901A9054800F037F90121034800F0D7
:1007A000CAF806B010BD0000000801400038014042
:1007B00010B540F22551264800F0D6F8012846D160
:1007C00040F22551224800F0A7F8214800F088F9AE
:1007D000C1B2204802680068401C1E4B18601E48C9
:1007E000815418460068022826DB1B480078202820
:1007F0001BD1194840785A2817D118460068401E66
:100800001549085C0A2817D118460068801E085C44
:100810000D2811D1114800F07DF900200D49086024
:1008200012210D48FFF7A9FC06E0002009490860E5
:1008300012210948FFF7A1FC06480068122806DBD0
:1008400000200449086012210348FFF796FC10BD00
:1008500000440040040000205800002000380140FF
:1008600010B540F22551284800F07EF8012849D102
:1008700040F22551244800F04FF8234800F030F9A9
:10088000C1B2224802680068401C204B1860204812
:10089000815418460068022828DB1D4800785A2831
:1008A0001CD11B4840785A2818D1184600680728E0
:1008B0001CDD174800F06CF9C0B1154840791449A7
:1008C000097940EA01201349086000200F490860B7
:1008D0000F48002101604160018107E000200B49C1
:1008E00008600B48002101604160018107480068F1
:1008F0000A2807DB0020054908600548002101603F
:100900004160018110BD000000480040100000203F
:100910006A0000201400002010B50022002340F6D9
:100920006A14A14200D100BF0A1201249440A3B26C
:10093000DC43048010BD21B1828942F400528281DF
:1009400004E082894DF6FF731A40828170470246A7
:100950000020B1F5007F00D100BF13880B400BB120
:10096000012000E00020704770B5024600240023FB
:100970000025002040F66A16B14200D100BFC1F345
:10098000421501F01F03012606FA03F3012D02D1DF
:100990009689334006E0022D02D1168A334001E0E9
:1009A000968A33400C12012606FA04F41688344065
:1009B00013B10CB1012000E0002070BDF0B503467A
:1009C000002400260025002040F66A17B94200D115
:1009D00000BF1846C1F3421401F01F06012707FAB1
:1009E00006F5012C01D10C3004E0022C01D11030AD
:1009F00000E014301AB107682F43076002E007686F
:100A0000AF430760F0BD00002DE9F04786B0054612
:100A10000E460024A24600BFA1460027B08900B1BF
:100A200000BF2F462C8A4CF6FF700440F088044328
:100A30002C82AC894EF6F3100440B088318908430B
:100A4000718908430443AC81AC8A4FF6FF400440EF
:100A5000B0890443AC8201A8FFF7B6FC1F48874267
:100A600002D1DDF810A001E0DDF80CA0A88900F4A7
:100A7000004040B10AEBCA0000EB0A10316849009F
:100A8000B0FBF1F807E00AEBCA0000EB0A1031688E
:100A90008900B0FBF1F86420B8FBF0F004012009F4
:100AA000642101FB1089A88900F4004040B1322084
:100AB00000EBC900B0FBF1F000F00700044308E0D0
:100AC000322000EB09106421B0FBF1F000F00F00C0
:100AD00004432C8106B0BDE8F087000000380140D7
:100AE00001468888C0F308007047C1F3080282807D
:100AF000704700BFFEE770B504460D462946204604
:100B0000FFF7F3FF00BF80212046FFF720FF0028FA
:100B1000F9D070BD70B506460C46002500BF615D7A
:100B20003046FFF7E8FF6D1C605D0028F7D100BF7D
:100B300040213046FFF70BFF0028F9D070BD0000C0
:100B4000014A024900F013B8450C00085400002087
:100B500002E008C8121F08C1002AFAD17047704786
:100B6000002001E001C1121F002AFBD170472DE9CE
:100B7000F04116460F460446002503E03946B047CB
:100B8000641C6D1C20780028F8D12846BDE8F0814F
:100B900001460023002203E0885C1844C3B2521CC3
:100BA000062AF9DDC879984201D10120704700205A
:100BB000FCE7000010B56FF00400FFF7E5FC0A4801
:100BC00000680A49B0FBF1F009490870084600784E
:100BD00000EB4001C1EBC0104FF6FF7101EAC0000D
:100BE0000449088010BD00002C00002000127A008B
:100BF00000000020020000200146114A12884A43EA
:100C00004FF0E0235A6100229A611A46126942F0BD
:100C100001021A6100BF4FF0E022106900F00102EA
:100C20001AB100F48032002AF5D04FF0E0221269A8
:100C300022F001024FF0E0231A6100229A6170470E
:100C40000200002070B504460D46E1B20548FFF7EA
:100C50004CFF00BF80210348FFF779FE0028F9D040
:100C6000204670BD00380140FFF7A4FFFFF752FB9C
:100C70004FF41650FFF74AFD04A0FFF761FF03E0B1
:100C80004FF47A70FFF7B8FFFAE70000696E6974F5
:100C9000616C697A65200D0A00000000BC0C000838
:100CA0000000002058000000500B0008140D000840
:100CB0005800002020040000600B00080000000025
:100CC0000000000000000000000000000000000024
:100CD0000000000000000000000000000000000014
:100CE000000000000000000000A24A040000000014
:100CF00000000000010203040607080900000000CC
:100D0000010203040102030406070809020406089D
:040D100000000000DF
:0400000508000131BD
:00000001FF
