:020000040800F2
:100000004004002049010008090400080104000818
:10001000050400089D020008C30900080000000054
:10002000000000000000000000000000950500082E
:10003000B5020008000000009D040008A9060008A1
:100040006301000863010008630100086301000800
:1000500063010008630100086301000863010008F0
:1000600063010008630100086301000863010008E0
:1000700063010008630100086301000863010008D0
:1000800063010008630100086301000863010008C0
:1000900063010008630100086301000863010008B0
:1000A00063010008630100086301000863010008A0
:1000B000630100080D0700086301000863010008E0
:1000C0006301000863010008630100086301000880
:1000D0006301000869070008630100086301000864
:1000E0006301000863010008630100086301000860
:1000F0006301000863010008630100086301000850
:10010000630100086301000863010008630100083F
:10011000630100086301000863010008630100082F
:10012000630100086301000863010008630100081F
:10013000DFF810D000F02CF800480047750A0008DE
:10014000AFF300804004002006488047064800477F
:10015000FEE7FEE7FEE7FEE7FEE7FEE7FEE7FEE777
:10016000FEE7FEE7AD06000831010008D2B201E06B
:1001700000F8012B491EFBD270470022F6E710B5AC
:1001800013460A4604461946FFF7F0FF204610BD05
:10019000064C074D06E0E06840F0010394E80700D4
:1001A00098471034AC42F6D3FFF7C6FF6C0C00083A
:1001B0008C0C00080146C86C80B2704702460020D3
:1001C00013680B400BB1012000E000207047F0B530
:1001D00004460D4600200021092D11DDE068A5F13F
:1001E0000A0606EB4607072606FA07F18843A5F13B
:1001F0000A0606EB460603FA06F10843E0600CE047
:10020000206905EB4507072606FA07F1884305EB49
:10021000450603FA06F108432061072A0FDA606BEE
:10022000561E06EB86071F2606FA07F18843561E60
:1002300006EB860605FA06F10843606322E00D2A04
:100240000FDA206BD61F06EB86071F2606FA07F18A
:100250008843D61F06EB860605FA06F1084320639D
:1002600010E0E06AA2F10D0606EB86071F2606FAEB
:1002700007F18843A2F10D0606EB860605FA06F1A2
:100280000843E062F0BD21B1826842F4A0028260BE
:1002900003E0826822F4A0028260704700BFFEE79C
:1002A00010B5012000F092F80149086010BD00006F
:1002B0000400002070472DE9F04102460025002689
:1002C000002000230024002791F803C00CF00F0544
:1002D00091F803C00CF0100CBCF1000F03D091F8A2
:1002E00002C04CEA050591F800C0BCF1000F31D006
:1002F000146800202BE04FF0010C0CFA00F3B1F869
:1003000000C00CEA03069E4220D183004FF00F0C80
:100310000CFA03F7BC4305FA03FC4CEA040491F819
:1003200003C0BCF1280F06D14FF0010C0CFA00FC01
:10033000C2F814C00AE091F803C0BCF1480F05D11F
:100340004FF0010C0CFA00FCC2F810C0401C082849
:10035000D1D31460B1F800C0BCF1FF0F34DD546894
:1003600000202EE000F1080C4FF0010808FA0CF311
:10037000B1F800C00CEA03069E4221D183004FF081
:100380000F0C0CFA03F7BC4305FA03FC4CEA040417
:1003900091F803C0BCF1280F05D100F1080C08FA50
:1003A0000CF8C2F8148091F803C0BCF1480F07D1D3
:1003B00000F1080C4FF0010808FA0CF8C2F81080A0
:1003C000401C0828CED35460BDE8F08110B5044627
:1003D0000723012221460948FFF7F9FE01210748BA
:1003E000FFF751FF00BF02210448FFF7E7FE002896
:1003F000F9D00248FFF7DEFE10BD000000240140E6
:1004000000BFFEE700BFFEE7704710B54FF4A060E5
:1004100000F03AF810BD000070B5002100230F2253
:10042000C47804B3154C246804F4E064C4F5E064B3
:10043000210AC1F10403CA40447804FA03F1847824
:100440001440214309010E4C0678A155047804F0AC
:100450001F050124AC4005786D11AD0005F1E025C4
:10046000C5F8004109E0047804F01F050124AC4000
:10047000044D0678761145F8264070BD0CED00E07D
:1004800000E400E080E100E002490143024A11601B
:10049000704700000000FA050CED00E07047000016
:1004A00029B1064A92690243044B9A6104E0034A67
:1004B00092698243014B9A6170470000001002402C
:1004C00030B500210022002400232D4D6D6805F079
:1004D0000C0121B1042905D0082923D105E0294DBB
:1004E000056022E0274D05601FE0254D6D6805F48D
:1004F0007012234D6D6805F48034022505EB92429D
:100500001CB9214D554305600BE01D4D6D6805F488
:1005100000351DB11C4D5543056002E0194D554392
:10052000056002E0174D056000BF00BF144D6D6807
:1005300005F0F0010909154D6B5C0568DD4045606B
:100540000F4D6D6805F4E061090A104D6B5C45685C
:10055000DD4085600A4D6D6805F46051C90A0B4D98
:100560006B5C4568DD40C560054D6D6805F4404134
:10057000890B074D6B5CC568B5FBF3F5056130BDB4
:100580000010024000127A0000093D002C000020FB
:100590003C000020704710B500F002F810BD0000CC
:1005A0000CB50020019000903348006840F4803082
:1005B0003149086000BF3048006800F40030009006
:1005C0000198401C0190009818B90198B0F5A06FEF
:1005D000F1D12948006800F4003010B101200090EA
:1005E00001E0002000900098012843D123480068D2
:1005F00040F01000214908600846006820F0030020
:1006000008600846006840F0020008601A48406828
:10061000194948600846406848600846406840F408
:10062000806048600846406820F47C1048600846B6
:10063000406840F4E81048600846006840F0807068
:10064000086000BF0C48006800F000700028F9D076
:100650000948406820F003000749486008464068A0
:1006600040F00200486000BF0348406800F00C0002
:100670000828F9D10CBD0000001002400020024003
:10068000042808D14FF0E021096941F004014FF03E
:10069000E022116107E04FF0E021096921F0040137
:1006A0004FF0E022116170477047000010B5134809
:1006B000006840F001001149086008464068104990
:1006C00008400E494860084600680E4908400B493A
:1006D00008600846006820F48020086008464068EA
:1006E00020F4FE0048604FF41F008860FFF753FFBE
:1006F0004FF000600449086010BD00000010024087
:100700000000FFF8FFFFF6FE08ED00E010B5012144
:10071000064800F012F840B10121044800F00AF840
:10072000FFF7BEFD01200249086010BD0004004033
:1007300014000020CA430282704730B502460020F0
:1007400000230024158A05EA0103958905EA0104BE
:1007500013B10CB1012000E0002030BD818670474C
:10076000018770478187704710B540F225512548B1
:1007700000F067F8012844D1224800F01DF9C4B206
:10078000A4F13100082835D2DFE800F0040E22176A
:100790001D342C304FF4E1511B48FFF7E1FF0021DD
:1007A0001948FFF7DBFF26E000211748FFF7D8FFC5
:1007B00000211548FFF7D2FF1DE04FF4E151124828
:1007C000FFF7D0FF17E000210F48FFF7CBFF12E043
:1007D0004FF4E1510C48FFF7C1FF00210A48FFF731
:1007E000BFFF08E0062000F057F904E0072000F002
:1007F00053F900E000BF00BF40F22551014800F06E
:1008000005F810BD003801400004004010B500227A
:10081000002340F66A14A14200D100BF0A1201244D
:100820009440A3B2DC43048010BD21B1828942F41C
:100830000052828104E082894DF6FF731A40828162
:10084000704770B50246002400230025002040F6C2
:100850006A16B14200D100BFC1F3421501F01F0377
:10086000012606FA03F3012D02D19689334006E0F2
:10087000022D02D1168A334001E0968A33400C12D1
:10088000012606FA04F41688344013B10CB1012095
:1008900000E0002070BDF0B50346002400260025CE
:1008A000002040F66A17B94200D100BF1846C1F3D4
:1008B000421401F01F06012707FA06F5012C01D1A9
:1008C0000C3004E0022C01D1103000E014301AB1D9
:1008D00007682F43076002E00768AF430760F0BD79
:1008E0002DE9F04786B005460E460024A24600BF1B
:1008F000A1460027B08900B100BF2F462C8A4CF6D4
:10090000FF700440F08804432C82AC894EF6F3104B
:100910000440B08831890843718908430443AC819D
:10092000AC8A4FF6FF400440B0890443AC8201A872
:10093000FFF7C6FD1F48874202D1DDF810A001E095
:10094000DDF80CA0A88900F4004040B10AEBCA0011
:1009500000EB0A1031684900B0FBF1F807E00AEB40
:10096000CA0000EB0A1031688900B0FBF1F864207E
:10097000B8FBF0F004012009642101FB1089A8896B
:1009800000F4004040B1322000EBC900B0FBF1F0B0
:1009900000F00700044308E0322000EB0910642156
:1009A000B0FBF1F000F00F0004432C8106B0BDE86D
:1009B000F08700000038014001468888C0F3080035
:1009C000704700BFFEE702E008C8121F08C1002AF6
:1009D000FAD170477047002001E001C1121F002AC0
:1009E000FBD1704710B56FF00400FFF749FE0A48CD
:1009F00000680A49B0FBF1F0094908700846007820
:100A000000EB4001C1EBC0104FF6FF7101EAC000DE
:100A10000449088010BD00001800002000127A0070
:100A200000000020020000200146114A12884A43BB
:100A30004FF0E0235A6100229A611A46126942F08F
:100A400001021A6100BF4FF0E022106900F00102BC
:100A50001AB100F48032002AF5D04FF0E02212697A
:100A600022F001024FF0E0231A6100229A617047E0
:100A700002000020C0B000BF00BF4FF48071684684
:100A8000FFF77BFB4FF4E13000F09EF8FFF7BDFC71
:100A9000FFF7A8FF00BFFEE710B50446012C0AD1FE
:100AA000444908604449C1F8AC014FF461604349CE
:100AB0000880091D0880022C0DD101203D490860E5
:100AC00000203D49C1F8AC014FF42F603B4908803C
:100AD0000020091D0880032C09D100203549086039
:100AE0003549C1F8AC0135490880091D0880042C3E
:100AF0000DD100202F49086001202F49C1F8AC0119
:100B000000202E4908804FF42F60091D0880052C15
:100B10000BD10020274908602749C1F8AC0141F2F8
:100B2000680026490880091D0880062C1FD1002076
:100B30002349086001202349C1F8A00140F6B830DC
:100B40001E49083108804FF47A70FFF76DFF4FF4AB
:100B50007A70FFF769FF4FF47A70FFF765FF4FF483
:100B60007A70FFF761FF0020144908310880072CD4
:100B70001FD101201249086000201249C1F8A001CC
:100B800040F6B8300D49083108804FF47A70FFF70D
:100B90004BFF4FF47A70FFF747FF4FF47A70FFF77F
:100BA00043FF4FF47A70FFF73FFF002003490831FD
:100BB000088010BDA0012142000021423404004001
:100BC0009C0122420000224210B586B00446012159
:100BD00044F20400FFF764FC4FF40070ADF8140019
:100BE00003208DF8160018208DF8170005A91D4860
:100BF000FFF761FB4FF48060ADF8140004208DF81E
:100C0000170005A91748FFF756FB25208DF80000AF
:100C100001208DF8030000208DF8010001208DF8DF
:100C200002006846FFF7F8FB01940020ADF80800C9
:100C3000ADF80A00ADF80C00ADF810000C20ADF8CE
:100C40000E00012240F225510748FFF724FE01A9BA
:100C50000548FFF745FE01210348FFF7E6FD06B012
:100C600010BD000000080140003801408C0C000855
:100C70000000002040000000C6090008CC0C00085D
:100C80004000002000040000D60900080000000019
:100C90000000000000000000000000000000000054
:100CA0000000000000A24A04000000000000000054
:100CB0000102030406070809000000000102030402
:0C0CC000010203040607080902040608EC
:0400000508000131BD
:00000001FF
